:060000000A128A11FC2F18
:10073C008B130B130A128A11B8230A128A110B1786
:10074C008B170800F1008316031381130130F0009E
:10075C00710AB22B0310F00DFF3E031DB02B700875
:10076C00950408000230F000F10103300A128A11DE
:10077C0073250A128A110330F000F10103300A12BA
:10078C008A1173250A128A110730F000F101033027
:10079C000A128A1173250A128A110230F000F10133
:1007AC0003300A128A11AD240A128A110330F000A8
:1007BC00F10103300A128A11AD240A128A11073092
:1007CC00F000F10103300A128A11AD240A128A11C9
:1007DC000330F000F101F10A01300A128A1173257D
:1007EC000A128A1103300A128A11A8230A128A11DA
:1007FC000430F000F101F10A01300A128A1173255C
:10080C000A128A1104300A128A11A8230A128A11B8
:10081C000530F000F101F10A01300A128A1173253A
:10082C000A128A1105300A128A11A8230A128A1197
:10083C000800F3008C2C0130F100700A272C0310F7
:10084C00F10DFF3E031D252C7108831203130505C2
:10085C00031D312C332C0130342C0030F400A52C2A
:10086C000130F100700A3C2C0310F10DFF3E031D0A
:10087C003A2C7108831203130605031D462C482CD1
:10088C000130492C0030F400A52C0130F100700A25
:10089C00512C0310F10DFF3E031D4F2C71088312D8
:1008AC0003130705031D5B2C5D2C01305E2C0030FF
:1008BC00F400A52C0130F100700A662C0310F10D28
:1008CC00FF3E031D642C7108831203130805031DDE
:1008DC00702C722C0130732C0030F400A52C0130DC
:1008EC00F100700A7B2C0310F10DFF3E031D792CD7
:1008FC007108831203130905031D852C872C013005
:10090C00882C0030F400A52C0030AC2C7308F100BE
:10091C00F2017208003A0319942C8A2C7108003ADF
:10092C000319212C013A0319362C033A03194B2CC9
:10093C00013A0319602C073A0319752C8A2C740898
:10094C00031DA92CAB2C0130AC2C00300800F4009A
:10095C00592D7103031DB32CB42CC22C0130F200A1
:10096C00700ABA2C0310F20DFF3E031DB82C72084E
:10097C00831203138504722D0130F200700AC82C07
:10098C000310F20DFF3E031DC62C7208FF3A8312B2
:10099C0003138505722D7103031DD52CD62CE42C65
:1009AC000130F200700ADC2C0310F20DFF3E031D27
:1009BC00DA2C7208831203138604722D0130F200B4
:1009CC00700AEA2C0310F20DFF3E031DE82C72088E
:1009DC00FF3A831203138605722D7103031DF72C46
:1009EC00F82C062D0130F200700AFE2C0310F20DCB
:1009FC00FF3E031DFC2C7208831203138704722D17
:100A0C000130F200700A0C2D0310F20DFF3E031D95
:100A1C000A2D7208FF3A831203138705722D710396
:100A2C00031D192D1A2D282D0130F200700A202DCE
:100A3C000310F20DFF3E031D1E2D720883120313CB
:100A4C008804722D0130F200700A2E2D0310F20D65
:100A5C00FF3E031D2C2D7208FF3A831203138805E9
:100A6C00722D7103031D3B2D3C2D4A2D0130F200DC
:100A7C00700A422D0310F20DFF3E031D402D72082B
:100A8C00831203138904722D0130F200700A502D69
:100A9C000310F20DFF3E031D4E2D7208FF3A831218
:100AAC0003138905722D7408F200F3017308003AE0
:100ABC000319612D722D7208003A0319AF2C013AFB
:100ACC000319D12C033A0319F32C013A0319152DF0
:100ADC00073A0319372D722D0800F400932E0430B9
:100AEC00700203187A2D7B2D8A2D0130F200700ACA
:100AFC00812D0310F20DFF3E031D7F2D7208FF3A6E
:100B0C00831603178805942D05307006031D8F2D51
:100B1C00902D942DEF308316031788057103031D58
:100B2C00982D992DA72D0130F200700A9F2D0310DE
:100B3C00F20DFF3E031D9D2D7208831603138504D1
:100B4C00AC2E0130F200700AAD2D0310F20DFF3EF9
:100B5C00031DAB2D7208FF3A831603138505AC2ECB
:100B6C007008031DBA2DBB2DC02DEF308316031753
:100B7C008905F52D7003031DC42DC52DCA2DFB3021
:100B8C00831603178905F52D02307006031DCF2D32
:100B9C00D02DD52DFE30831603178905F52D033086
:100BAC007006031DDA2DDB2DE02DFD3083160317A7
:100BBC008905F52D04307006031DE52DE62DEB2D72
:100BCC00F730831603178905F52D05307006031DC4
:100BDC00F02DF12DF52DDF308316031789057103E8
:100BEC00031DF92DFA2D082E0130F200700A002E8B
:100BFC000310F20DFF3E031DFE2D72088316031326
:100C0C008604AC2E0130F200700A0E2E0310F20D89
:100C1C00FF3E031D0C2E7208FF3A83160313860544
:100C2C00AC2E7103031D1B2E1C2E2A2E0130F2003C
:100C3C00700A222E0310F20DFF3E031D202E7208A7
:100C4C00831603138704AC2E0130F200700A302E89
:100C5C000310F20DFF3E031D2E2E7208FF3A831671
:100C6C0003138705AC2E7103031D3D2E3E2E4C2E17
:100C7C000130F200700A442E0310F20DFF3E031DEA
:100C8C00422E7208831603138804AC2E0130F20036
:100C9C00700A522E0310F20DFF3E031D502E7208E7
:100CAC00FF3A831603138805AC2E03307002031829
:100CBC00602E612E712E0130F2007008053E013E4F
:100CCC00692E0310F20DFF3E031D672E7208FF3ACA
:100CDC008316031788057103031D752E762E842E3B
:100CEC000130F200700A7C2E0310F20DFF3E031D42
:100CFC007A2E7208831603138904AC2E0130F2008D
:100D0C00700A8A2E0310F20DFF3E031D882E720806
:100D1C00FF3A831603138905AC2E7408F200F30115
:100D2C007308003A03199B2EAC2E7208003A031973
:100D3C00752D013A0319B62D033A0319172E013AF2
:100D4C000319392E073A03195B2EAC2E08000A1230
:100D5C008A119E230A128A110330F00001300A1204
:100D6C008A111F240A128A11003A0319BE2EC02EB2
:100D7C000130C12E003083120313A6000430F000A2
:100D8C0001300A128A111F240A128A11003A03191F
:100D9C00D02ED22E0130D32E003083120313A70095
:100DAC000530F00001300A128A111F240A128A1130
:100DBC00003A0319E22EE42E0130E52E00308312A6
:100DCC000313A8002608031DEC2EED2EF72E270882
:100DDC00031DF12EF22EF72E28080319F62EF72EEE
:100DEC00B22E8230F600DD30F500F50BFB2EF60B43
:100DFC00FB2E002F8312031326080319062F072F2F
:100E0C00532F0330F00001300A128A111F240A12EA
:100E1C008A11003A031D132F142F532F0230F000A8
:100E2C00F101F10A03300A128A11AD240A128A1157
:100E3C0083120313A001A1014130F600EE30F5003E
:100E4C00F50B262FF60B262F00000130831203130F
:100E5C00A0070318A10A0030A10701302102F430C9
:100E6C0003192002031C3B2F3C2F222F0230F000D1
:100E7C00F10103300A128A11AD240A128A110330CF
:100E8C00F00001300A128A111F240A128A11003A4A
:100E9C000319512F522F452FB22E831203132708FB
:100EAC000319592F5A2FA62F0430F00001300A12C3
:100EBC008A111F240A128A11003A031D662F672F0C
:100ECC00A62F0330F000F101F10A03300A128A1147
:100EDC00AD240A128A1183120313A201A30141301B
:100EEC00F600EE30F500F50B792FF60B792F00009C
:100EFC00013083120313A2070318A30A0030A307BF
:100F0C0001302302F43003192202031C8E2F8F2F81
:100F1C00752F0330F000F10103300A128A11AD2451
:100F2C000A128A110430F00001300A128A111F24AF
:100F3C000A128A11003A0319A42FA52F982FB22E4A
:100F4C008312031328080319AC2FAD2FB22E0530D2
:100F5C00F00001300A128A111F240A128A11003A79
:100F6C00031DB92FBA2FB22E0730F000F101F10A90
:100F7C0003300A128A11AD240A128A118312031348
:100F8C00A401A5014130F600EE30F500F50BCC2F95
:100F9C00F60BCC2F0000013083120313A4070318A7
:100FAC00A50A0030A50701302502F43003192402EC
:100FBC00031CE12FE22FC82F0730F000F1010330A2
:100FCC000A128A11AD240A128A110530F000013080
:100FDC000A128A111F240A128A11003A0319F72FD8
:100FEC00F82FEB2FB22E0A128A11002883010A1255
:040FFC008A11AD2E7B
:04400E00E223FF3F6B
:00000001FF
